:020000040800F2
:1000000000000110914703085F1D0308FD67020807
:100010004D4803084D4803084D4803080000000000
:100020000000000000000000000000005D1D03084B
:100030005B1D030800000000591D03087B760208C1
:100040004D4803084D4803084D4803084D48030830
:100050004D4803084D480308437902084B790208CC
:100060004D48030849790208477902082199010897
:1000700011990108FD980108E9980108D59801082F
:10008000C1980108AD9801084D4803084D48030880
:100090004D4803084D4803084D48030845790208B8
:1000A0005D9A0108359A01080D9A0108859A0108A0
:1000B000F9990108E5990108D19901084D4803080B
:1000C0004D4803084D4803084D4803084D480308B0
:1000D0004D48030809A10108FDA00108F1A001088D
:1000E000417902084D4803088937030881990108BE
:1000F0005999010831990108A999010899980108AD
:100100004D4803084D480308BD9901084D480308B0
:10011000E5A00108D9A001084D4803084D4803088F
:1001200085980108719801085D98010849980108AF
:10013000359801084D4803084D4803084D48030809
:100140004D4803084D4803084D480308CB170308E2
:10015000219801080D980108F99701084D480308F6
:100160004D4803084D4803084D4803084D4803080F
:100170004D4803084D4803084D4803084D480308FF
:080180004D4803084D48030837
:10018800064BD879012807D0022804D1044B1868F7
:10019800C0F3402070470020704700BF70A80020BF
:1001A800C01B00200A4B987A80B10A4B1A7A62B9B0
:1001B800094AD3F8E4311268D21A4FF47A735843D3
:1001C800824294BF0020012070470020704700BF82
:1001D80070A8002034A00020189B00200123037081
:1001E8000023C362836203630362436243618361E2
:1001F8004363704710B5074C074A002120465160F9
:100208009160D160FFF7EAFF0023A4F8CA3613749F
:10021800516110BD78A10020C01B0020064A08B516
:100228001046FFF7DBFF0021044BA2F80417002259
:1002380083F820105A6208BD40A10020C01B00208E
:10024800DFED117A80ED010AF4EEE70AF1EE10FA1B
:10025800C0ED020A80ED031A11DDB4EEE70AF1EEF3
:1002680010FA0CDD81EE007AC0EE207AF0EE006A1A
:1002780077EE877A86EEA77A80ED047AAEE70023D8
:1002880083600361FAE700BFBD378635054B1978EF
:10029800814205D02422424318700348825C5A7078
:1002A8000846704734A0002064720308034B93F893
:1002B8004830002B14BF022000207047C01B0020CC
:1002C800022070470020704708B5064B1A7A0AB119
:1002D800DB7A13B9FFF766FF08B9002008BD0A20CA
:1002E800FCE700BF34A000200A4A92F90C38182114
:1002F80001FB032191F86E12A52909D092F9F9178B
:1003080001398B4204DA013382F80C380220704735
:100318000D20704734A00020094A92F90C381821A2
:1003280001FB032393F85822042A06D1B3F9683253
:10033800002B14BF0C20022070470220704700BF1A
:1003480034A0002040F60103C38340F60C03438029
:100358002C23A0F86A30A0F84030A0F86C3037237E
:10036800438340F6410343824623A0F842304C239E
:100378000386A0F86630A0F868305223A0F844300D
:1003880040F66103C38240F681030383A123A0F8EA
:100398004830A0F84630A0F84E30B72340F6170290
:1003A8004386F8230280838621224FF4B773C285DF
:1003B8008385412240F6C803A0F85020C380C1229B
:1003C80003815423E121A0F84A20038240F201125C
:1003D800C82310B5A0F84C10A0F86E20A0F854104F
:1003E800A0F85220838240F21713438140F237135A
:1003F800838140F67713038740F297134387F723E7
:10040800A0F86030D723A0F862304FF416638383D6
:100418004FF4A073C3874FF4C073438540F68C1321
:10042800C3814FF4C9734FF4B17203854FF4A171BE
:100438004FF4C17342848384A0F87030A0F87230FE
:10044800A0F87430A0F87630A0F87830A0F87A30A8
:10045800A0F87E20A0F88030A0F88230A0F8843080
:10046800A0F88630A0F88830A0F88A30A0F88C3040
:10047800A0F88E30A0F89030A0F892300184A0F84F
:100488007C10A0F89430A0F89630A0F89830A0F826
:100498009A30A0F89E30A0F8A030A0F8A230A0F8BA
:1004A800A430A0F8A630A0F8A8302F23C384A32333
:1004B800C386C323A0F85C30E323A0F85E3040F67F
:1004C800A1138387AA2200F1A804831E33F8021F10
:1004D80021F40061A3429952F8D1AA32B2F52A7FD9
:1004E800F3D1142380F8A8320A23A0F8AA3264238F
:1004F800A0F8AC324FF47A73A0F8AE320523A0F816
:10050800B03201230022A0F8B43280F8BA3280F861
:10051800BC32092380F8B222A0F8B622A0F8B8228B
:1005280080F8BD3210BD002803DBB0F5B47F03DAD4
:10053800704700F5B470F6E7A0F5B470F5E7154B11
:1005480093F85130013B0D2B1FD8DFE803F020074B
:100558001E1E090B1E1E0F1A1C1E110D0E48704779
:100568000E4870470E4870470E4870470E4870474F
:100578000E4B0F481B6813F0100F0E4B08BF1846A0
:1005880070470D4870470D487047002070470C4869
:10059800704700BFC01B00201DCF03082ECF0308E3
:1005A80043CF03085FCF030869CF030860450020E5
:1005B80093CF030871CF03087ACF030881CF0308CC
:1005C80010CF03080B4B93F8BA32012B09D001D393
:1005D800022B0BD1E023584342F2107390FBF3F047
:1005E8007047242358434FF47A73F7E74FF0FF30EE
:1005F800704700BF749D00202DE9F0481D4A0C4645
:1006080090B1B2F856301C4ED1E900015B08012BBD
:1006180098BF48F20503002710EB060B41EB070CC7
:10062800C4E900BCA2F85630B2F8563013F0010302
:100638001DD0BDE8F08854F82310C1F307314807EE
:100648004FEA830606D409070BD5D2F848110B39AF
:100658002B2906D892F8401102EB8101D1F8D80075
:100668007051013392F84C118B42E4DBE1E7034C03
:10067800034DF7E7C01B0020A0860100181C0020CE
:10068800A84A00202DE9F0472B4B2C4C0D46F0B121
:100698001A78F02A30D97F2293F901001A7094F859
:1006A8004E21824201DD002802DA9A7852429A707D
:1006B8009A7802445A70D5E9000144F21A1610EBF0
:1006C80006084FF0000741EB0709C5E900891878CB
:1006D80094F84C5193F9016093F90270DFF8608047
:1006E800DFF860900022C0F1FF0EA0F17F0C1146E8
:1006F800954204D8BDE8F0870F321A70DBE758F846
:1007080022309B044FEA820410D5CBB29B1B83EAAC
:10071800E37AAAEBE37ABAF1010F09DC53B1BB42E1
:100728000CBF634673464C440131E3700132DFE786
:100738000823F8E70346F6E700000020C01B002066
:10074800181C0020A84A00202DE9F041264A0C4632
:1007580090B192F85031D3B1013BDBB2D2F84811D5
:1007680082F85031214B93FBF1F3D4E90001C5180D
:1007780041EBE376C4E9005600211D4D1D4E1E4F86
:100788000C4692F84C318B4204DCBDE8F08192F8BB
:100798004F31E1E755F82100C0F30323062B4FEA58
:1007A800810C1AD133685B0719D592F8503192F849
:1007B8004F8103EB040E9EFBF8F308FB13E3012BB8
:1007C800CCBF002301233BB1C0F3834002EB800080
:1007D800D0F8D8004CF8070001340131D1E7E343E1
:1007E80003F00103EFE700BFC01B002080841E0058
:1007F800181C002024450020A84A00200A4A70B589
:100808000A4E002302F1580592F84C419C4200DC44
:1008180070BD55F8234030EA040404BF0C6846F85C
:1008280023400133F0E700BFC01B0020A84A002086
:100838002DE9700B234B244D0E4688B193F85121B6
:10084800FAB1013AD6E90001DFF88C8083F851212A
:1008580010EB080B4FF0000941EB090CC6E900BC8E
:10086800EA791A491AB11A4A1268140618D493F880
:100878004131203301EB83014FF4A060BDE8700BD8
:10088800BCE7EC7993F85201013CA042B5BF0130B6
:1008980083F8522183F852010422B8BF0122D1E71C
:1008A8000C4893F851210068800706D512B993F8CF
:1008B8004331DEE793F83F31DBE7002AD7D193F8DD
:1008C8004231D6E7C01B0020F05F0020181C002032
:1008D8005C5E002060450020801A06002DE91008A3
:1008E8001B4B0C46F0B1B3F8541164224A4340F252
:1008F800FF3192FBF1F2322A22DD002283F85621E1
:10090800012193F85601134A92FBF1F280F001009D
:1009180083F85601D4E9000110EB020B41EBE27CAD
:10092800C4E900BC93F856217AB993F83F310A49D3
:10093800203301EB83014FF48060BDE810085DE7C8
:10094800142ACCBF02210821DBE7BDE81008704754
:10095800C01B002040420F00181C00202DE9100881
:10096800174B0C46B8B193F8572112B3012A0CBFA4
:100978000221082193F85801124A92FBF1F280F003
:10098800010083F85801D4E9000110EB020B41EB98
:10099800E27CC4E900BC93F8582172B993F83F315E
:1009A8000949203301EB83014FF44070BDE810087A
:1009B80024E783F858210121DCE7BDE810087047D7
:1009C800C01B002040420F00181C002081EA0002D2
:1009D8004FF0000381EA102162F3070361F30F234C
:1009E80018B2704782B002AA002342F8040D985C3E
:1009F800484098540133042BF9D1019802B070474C
:100A080038B1022904D0032914BF002002207047FE
:100A180001207047044B9A8AC286DA8A02871A8BA9
:100A28004287D878704700BFF05F002001207047E8
:100A38004FF0FF3070477047002070470020704724
:100A4800027A407A50437047002070470020704770
:100A58000020704741F60D630381704700207047FE
:100A6800014610B5094C5E29206808D15D2126F0A1
:100A78004DFE3E212068BDE8104026F047BE5D29A6
:100A8800F9D126F043FE3D21F4E700BFC05D002008
:100A980008B5064B1B68DB0605D418202DF054F961
:100AA80000F0010008BD0020FAE700BF6045002003
:100AB8000D4B10B51C6814F0100403D0BDE81040AD
:100AC80026F06ABD26F068FD084B03F5B072C2E94E
:100AD800000103F5B47200200021C2E90001C3F847
:100AE8007041C3F8744110BD60450020C01B002050
:100AF80008B526F051FD094B0022C3E90A01002080
:100B08000021C3E90C01C3E9100183F8382083F8F8
:100B1800482083F84920022008BD00BFC01B0020E0
:100B280010B50C4C2BF090FB2368DB0601D52BF09D
:100B38002BFB094A094BB2F87811B3F84830084A38
:100B48008B429FBF2368D18043F08003236088BF16
:100B5800D38010BD60450020C01B002070A8002075
:100B680088600020154B1B68DB0670B51FD42DF07C
:100B7800D9FB134B13491B78134ACBB1B2F8863112
:100B88008B8092F88B61B2F87831B1F90450B2F8E1
:100B98007A4133440A339D4204DBA31B0A3BAB4230
:100BA800A8BF2B468B8010B9012382F88E3170BD07
:100BB8000028E3D0054BDB88E2E700BF6045002052
:100BC80070A8002000000020C01B002088600020C2
:100BD80010B526F0E1FC0E4B93F8384034B10122F1
:100BE800C3E9100183F84920022010BD094B186899
:100BF80010F08040F9D02DF095FB30B92DF0B8FBFE
:100C080000280CBF00200420EFE72046EDE700BFD6
:100C1800C01B00205C45002008B5044B9B7913B12C
:100C2800072012F075F8022008BD00BF70A8002048
:100C380010B441F26F74A14282BF3C22B1FBF2F1C1
:100C48001A4600F8012B3C235DF8044BB1FBF3F284
:100C580003FB1213014928F03BB900BF00FD03084C
:100C680010B5044626F098FC054A002333F0F8FB3B
:100C7800702301469B222046BDE81040D8E700BFFC
:100C880040420F002DE9FF47354C9DF830A09DF8F4
:100C980034909DF838709846054613460E460A4625
:100CA8000146206826F0B8FE98F800202D4903A8D0
:100CB80028F00EF950462DF075FB002849D1BAF1FD
:100CC800120F02D0BAF10F0F02D106202DF06AFBE5
:100CD800291D009003AB3246C9B2206826F061FE98
:100CE80098F801201F4903A828F0F2F848462DF08B
:100CF80059FB80BBB9F1130F02D0B9F1100F02D123
:100D080007202DF04FFB05F10801009003AB324698
:100D1800C9B2206826F045FE98F80220114903A8B8
:100D280028F0D6F838462DF03DFBB0B9142F01D085
:100D3800112F02D108202DF035FB05F10C01009090
:100D480003AB3246C9B2206826F02BFE04B0BDE8DA
:100D5800F0870120BCE70120D5E70120EDE700BFBF
:100D6800CCA8002095D5030810B5802204460021A0
:100D780036F0F4F90021382204F1800036F0EEF95B
:100D88000B490023E218C858C2F880000433382BF6
:100D9800F8D12422074904F1C00033F077FE04F1AA
:100DA800E4000B220449BDE8104033F06FBE00BFD9
:100DB80008770308407703086477030870B5064688
:100DC8000D4621F0DBF9FCEEC07A71239C2217EE68
:100DD800901A304617EE904AFFF72AFF084BB3F8EF
:100DE800AA3263B13C22B4FBF2F49C4207D3054B10
:100DF8001B685B0742BF2B7843F001032B7070BD63
:100E0800749D00202445002038B50E4C94F85731C5
:100E1800032B05460FD094F88F316BB1D4F890218D
:100E2800D2E904329B1AD4F89421934222BF2B783A
:100E380043F001032B7038BD0CF048FDB4F898312D
:100E48008342F3E7C01B00202DE930480D46364C9D
:100E580000283ED094F89A31013303F00F0384F848
:100E68009A3163BB84F89B31304B1B68990705D5D1
:100E780094F8573113B1022384F89B312C4B1B791A
:100E88002BB194F89B3143F0040384F89B31294B30
:100E98001B685A070AD423F0784323F07F032BB149
:100EA80094F89B3143F0010384F89B310CF068FB04
:100EB80028B994F89B3143F0080384F89B31D5E9AD
:100EC80000231D48002112EB000B43EB010CC5E980
:100ED80000BC94F89B312BB394F89A118A081341FB
:100EE800DB071FD501F00101032A1BD8DFE802F058
:100EF800020E1216114B03F11802002914BF1946ED
:100F080011464FF40030BDE8304877E40B4B03F14D
:100F18000802F2E70A4BA3F11802EEE7074B03F1C8
:100F28002802EAE7BDE83088C01B00205C450020A5
:100F38002845002024450020A086010008770308E2
:100F4800307703081FB500220DF10F03009320210D
:100F58000123104619F02AFE05B05DF804FB2DE9BF
:100F6800F843A84EA84D00273446D6F8A40126F029
:100F7800CAFB10B93846BDE8F883D6F8A40126F0B4
:100F8800BCFB242880464CD019D80A2800F0DF8002
:100F98000D2800F0DC8094F8C1310E2BE5D85A1CDE
:100FA80005F8038094F8E43184F8C121002BDCD1E2
:100FB80094F8C23188EA030884F8C281D5E72A2860
:100FC80001D02C28E7D194F8C13194F8C0910022BF
:100FD800EA54B9F1000F0ED18C4984F8C391284620
:100FE80032F0F2FB20B18A49284632F0EDFB00BB13
:100FF800012384F8C33194F8C331012B26D0022B86
:101008006BD094F8C031013384F8C031B8F12A0F9D
:101018004FF0000384F8C131CAD1012384F8E431C8
:10102800A3E7002386F8C03186F8C13186F8C231BB
:101038009BE77849284632F0C7FB28B1764928460D
:1010480032F0C2FB0028DCD10223D2E7A9F1020961
:10105800B9F1070FD5D8DFE809F0040912172028DD
:101068002E3730F085F8C4F8C801CAE72B78532B1F
:10107800C7D1D4F8C8315B42C4F8C831C1E730F0F1
:1010880077F8C4F8CC01BCE72B78572BB9D1D4F842
:10109800CC315B42C4F8CC31B3E72B78302B8CBF12
:1010A8000123002384F8C431ABE7002030F000F9B5
:1010B80084F8D001A5E7012030F0FAF800EB8000B1
:1010C8004000A4F8D8019CE7012030F0F1F800EBCB
:1010D80080004000A4F8D20193E709F1FF39B9F183
:1010E800080F8ED801A353F829F000BF1911000882
:1010F8000B1000080B1000080B1000080B1000085C
:101108000B100008251100083F1100084B110008BA
:10111800022030F0CDF8C4F8DC0172E7012030F08D
:10112800C7F841F2184358434FF47A73B0FBF3F011
:10113800A4F8D40165E7012030F0BAF8A4F8D60184
:101148005FE7002030F0B4F8C4F8E00159E794F8FC
:10115800E431002B3FF409AF2B786A78402B85BF28
:10116800373B1B011B01DBB298BF03F0F003402A99
:101178008CBF373A303AD2B2134494F8C221DBB26A
:101188009A4240F09880D4F8F4310133C4F8F4312D
:1011980094F8C331012B03D0022B41D000233DE743
:1011A8001E4B94F8D021DA7194F8C42142B302227C
:1011B8009A71D4F8C8219A60D4F8CC21DA60B4F8CE
:1011C800D2211A61B4F8D82142F20F7110468A422E
:1011D8004FEA420228BF08468A4228BF0A4692B20E
:1011E8009A84DA84002218851A711978002281F00D
:1011F800010184F8E42119705A709A700127B4E645
:101208009A71F2E7C01B0020B8B10020A9CF0308EB
:10121800AFCF0308B5CF0308BBCF0308F05F0020AA
:101228002849B4F8D431D4F8E0010B84B4F8D631A5
:101238004B84E8B3D4F8DC21D2B36423B0FBF3FECB
:1012480003FB1E0C0CF5FA6CA1F82AC0BEFBF3FCDC
:1012580003FB1CEC81F82CC042F2107CB0FBFCF0C4
:10126800B0FBF3FE03FB1E0081F82D001648B2FB0D
:10127800F0F0B0FBF3FE03FB1E0081F82E00B2FB7A
:10128800FCF0B0FBF3FC03FB1C00B2FBF3FC02F028
:10129800640281F82F0002EB8202BCFBF3F003FB2F
:1012A80010C381F83030520001234A864B7175E72C
:1012B80000234B71B2E6D4F8EC310133C4F8EC31B9
:1012C8006CE700BFF05F002040420F00F8B50B4FFD
:1012D8004FF0FF350024DC2606FB04F3D85938B15B
:1012E8000379142B04D026F00BFA854228BF054653
:1012F8000134032CF0D12846F8BD00BFCCB1002042
:1013080010B508461C4611460BF0CBF920460BF0E9
:10131800A9F9002010BD10B508461C4611460BF06F
:10132800C0F920460BF0B4F9002010BD08B50BF049
:10133800CEF9002008BD1FB58DF80C3000238DF8BC
:101348000D309DF81830009303AB08F0F9F805B09C
:101358005DF804FB70B5124E124DB67A124C002897
:10136800B8BF40423C2290FBF4F305FB0300504316
:101378009BB290FBF4F294B276B903EB830303EBD0
:10138800830304EB83030B8005FB02024FF47A739B
:1013980092FBF3F24A8070BDC3EB0313F1E700BF81
:1013A8007C450020806967FF8096980010B5044648
:1013B800C0B2FFF755FBC4F30720BDE81040FFF7A4
:1013C8004FBB024B5E21186826F0A0B9C05D002013
:1013D80038B5064C05465E21206826F097F929465F
:1013E8002068BDE8384026F091B900BFC05D0020F4
:1013F80010B51A4BDC791B8D632CA8BF6324333BD3
:10140800322293FBF2F3581C26D0092BA8BF0923DC
:10141800C3F10903642202FB0344114B1B68A4B205
:10142800990744BF04F57A74A4B2DA070D4B1B6818
:1014380044BF04F5FA64A4B25B070BD515202CF061
:1014480083FC38B1084B1B6813F4016F04BF04F523
:101458007A64A4B2204610BD0023D9E7F05F0020CB
:101468006045002024450020C01B0020274B1A6837
:1014780022F0784323F07F03002B0CBF01200220C9
:101488005307234B1B6848BF0430D90744BF0A30B1
:1014980080B29A0744BF143080B2D90544BF2830BF
:1014A80080B25A0744BF643080B2190744BFC830BD
:1014B80080B29A0644BF00F5C87080B2D90644BF0E
:1014C80000F57A7080B2DA040FD500F5FA5080B2D0
:1014D800990442BF00F51C50103080B29A050ED511
:1014E800A0F5C740403880B27047190502D500F50D
:1014F800FA60ECE75A06EBD500F57A60E7E75B059A
:10150800F2D500F59C402030EDE700BF24450020CF
:10151800C01B002038B503680B4D591C95F8F821FD
:1015280001601A700468446005F2F911641A422CCB
:10153800A8BF42240160224605F23B2033F0A6FAF8
:1015480085F87D4238BD00BFC01B0020036810B578
:101558005A1C054C0260197094F8F80128F02EF90D
:1015680084F8F80110BD00BFC01B002038B505463F
:101578000C46090EFFF7EAFFC4F307412846FFF7B8
:10158800E5FFC4F307212846FFF7E0FFE1B228464C
:10159800BDE83840DAE738B505460C46090AFFF7D2
:1015A800D5FFE1B22846BDE83840CFE7064B00201A
:1015B80003F520720021C2E912010022C3F8BC22FF
:1015C800C3F8C022704700BFC01B002070B5334E5F
:1015D800334C96F8D832D4ED097A3546F8EEE77AE6
:1015E800002B44D12F4B9FED307A93ED020A77EE12
:1015F800C07AA7EE870A9FED2D7A83ED020AF5EEF1
:10160800C07AF1EE10FA20EE077A48BFF1EE677A59
:10161800B4EEE77A264BF1EE10FA1B6824DDD6F813
:10162800DC229B1AFA2B1BD9DFED227ADFED220A86
:1016380080EE270A33F098FDF7EE007A37EEC00AFD
:10164800DFED1E7A20EE270A86EDB80A012685F816
:10165800D86233F0FBFB1A490246304628F0D2F82C
:101668000023E361E06970BDC6F8DC32F8E79FED5E
:10167800110ADFED110A87EE800A33F075FDF7EEE7
:10168800007A37EEC00A9FED0D7AD6EDB87AD0EE23
:10169800077AFDEEE77AC4ED077AE3E7C01B00207E
:1016A80060600020000000209A99193E17B7513851
:1016B800189B002080E6C547B1DC423ED048874AE7
:1016C800C1CF030808B52AF0B3FE074A126812060C
:1016D80006D430B9054B93F8E902003018BF012051
:1016E80008BD0120FCE700BF5C5E0020C01B002095
:1016F8000B4B93F8E532012B03D0022B09D00020C5
:101708007047084B1B6813F00C0F0CBF012000201A
:101718007047044B186880F00400C0F380007047DD
:10172800C01B0020244500202DE9F04F2DED028B31
:101738000E4D89B025F030FF2B6907930C4B1B68C1
:1017480082468B46A868E96805901A06069140F11A
:101758001883084B1B689B0710D4074B01221A7388
:1017680009B0BDEC028BBDE8F08F00BFF05F002030
:101778005C5E00206045002000000020DB4CDC4E51
:10178800D4E90023BAEB02086BEB030900274F45A5
:1017980008BF464538BFD74BA046D74C3CBF0122AF
:1017A8001A7394F8E432002B00F0C48094F83033B4
:1017B800002B40F0BF8007EE900A9FEDD07AF8EE3C
:1017C800E77AC7EE875ADFEDCE7AF4EEE75AF1EE04
:1017D80010FA00F15D82DFEDCB7AF4EEE75AF1EE14
:1017E80010FA00F3558207EE901AF8EEE77A87EEC2
:1017F800875ADFEDC57AB4EEE75AF1EE10FAB0EE8B
:10180800673A00F145829FEDC16AB4EEC65AF1EE1F
:1018180010FA00F33D82F2EE047AC5EEA76ABC4ADC
:10182800252085EE277AFDEEE66ADFEDBA4A9FEDC0
:10183800BA4AF8EEE66AF4EEE45A66EEA76ABDEE36
:10184800C77AF1EE10FAF4EEC45A8CBFFDEEE64A00
:10185800DFEDB24AB8EEC77AF1EE10FAA8BF76EE1D
:10186800E76A27EE277AB4EEC35AA8BFFDEEE64A28
:10187800F1EE10FAB4EEC65AF0EE443A8CBFBDEE63
:10188800C74A9FEDA74AF1EE10FAA8BF37EE677A6C
:10189800F8EEE46AA8BFBDEEC74A36EEA37A75EE45
:1018A800E66AC7EE274ABCEEE47A17EE103AB8EEBD
:1018B800C47A00FB032637EE066A35EE477AC6EE91
:1018C800274A03FB0000131887EE275ABCEEE46A88
:1018D80016EE101A771897F90B7500EE107A4F1C50
:1018E80019443E4491F90B2506EE102A96F90B256A
:1018F80007EE102AB8EEC00AB8EEC77A3B4437EEB6
:10190800407A93F90B35A5EE070A86EEA77A07EE1B
:10191800903AB8EEC66AF8EEE77A77EEC67AA5EEA0
:10192800276A36EE406AA7EE060A2BF075FA0123FD
:1019380084F830337B4E96F8EC31002B40F0AE81C2
:10194800012386F8EC31059BC6F8F431002BB8BFAB
:101958005B4207EE903A9FED697A069AC6F8F8213D
:10196800F8EEE77A079AC6F8FC2187EE870ADFEDDA
:101978006E7A20EE270A27F0F3FDDFED6C7AB4EEDD
:10198800E70AF1EE10FA00F18681F7EE007AB4EE7C
:10199800670AF1EE10FAC8BFB0EE670A86ED7C0A56
:1019A80096F8EC31002B3FF4DBAE0022604905A825
:1019B8002EF088FF4F4B1A7B9946002A40F0598138
:1019C800D8E900015B4ABAEB00006BEB0101CDE9F5
:1019D80000014FF0FF338018594100234CF2503278
:1019E8008B4208BF824280F06281DDE90001524AE1
:1019F8004FF0FF3380185941002749F640468F427F
:101A080008BF864280F05581DDE900014B4A4FF05E
:101A1800FF3380185941002344F620628B4208BFE7
:101A2800824280F04881DDE90001454A4FF0FF33EA
:101A380080185941002742F210768F4208BF86422B
:101A480080F03B81DDE900013E4A4FF0FF3380180A
:101A58005941002741F270768F4208BF864280F0D4
:101A68002F81DDE90001384A4FF0FF3380185941D2
:101A780000274FF47A668F4208BF864280F02381A0
:101A8800DDE90001314A4FF0FF33801859418F4298
:101A980008BF864204D344F620620023CDE9002320
:101AA800DDE9000132F046FCAE689FED298A9FED22
:101AB800137A07EE900A86EAE673A3EBE67367EEFD
:101AC800888A07EE903AF8EEE77A87EE870ADFED24
:101AD800167A20EE270A27F043FDDFED147AB4EEDC
:101AE800E70AF1EE10FA00F1F18033E0E81E002079
:101AF80060E3160000000020C01B00208096184BF1
:101B08000000B4C20000B442000034C300003443F3
:101B180064720308000070C200007042C4FFFFFF37
:101B28004CFFFFFF34A0002035FA8E3C0AD7233C37
:101B38000C1F00201891FCFFE040FDFF70A0FEFF85
:101B48003850FFFFD08AFFFF28A6FFFFB0B9FFFF7C
:101B5800BD378635F7EE007AB4EE670AF1EE10FA73
:101B6800C8BFB0EE670A94F8E822002A00F0B180F6
:101B78006B78002B00F0AD80B5F91A3007EE903A7B
:101B8800B5F91C30F8EEE77AC4EDD67A07EE903A4C
:101B9800F8EEE77AC4EDD77A002A00F0C680AB7871
:101BA800002B00F0C280B5F91E305B4207EE903A78
:101BB800F8EEE77A764BC4EDD87AD3E90012CDE98E
:101BC80000120A4303F1080703F1140600F0C0806D
:101BD800DDE90001BAEB00006BEB0101039332F081
:101BE800A9FB07EE900AD7ED006A97ED017A27EE78
:101BF800888AD6ED007AB0EE666AA8EE276AB0EE5B
:101C0800470A76EE667AD6ED016AA8EE260A30EE25
:101C1800470A20EE000AA7EEA70A33F037FC9FED2B
:101C28005D7ADFED5D7A039B28EE077AE8EE077AA6
:101C3800B4EEE70AF1EE10FA40F28A80002384F845
:101C48004933012384F848332B79002B00F0928024
:101C5800AB8C07EE903AEB8CF8EE677AC4EDD97A44
:101C680007EE903AF8EE677AC4EDDA7A4B4BC3E99F
:101C780002ABAB68C4F83034EB68C4F834342B6971
:101C8800C4F83834002389F80C30C8E900AB67E59C
:101C98009FED430A49E6B0EE670A7FE6FFF728FDA5
:101CA80000283FF47DAE079BC6F8FC3178E63D4A34
:101CB800F3E63D4AF1E63D4AEFE64CF25032ECE6F7
:101CC80048F23522E9E646F2A812E6E6B0EE670ADF
:101CD80049E7D4F830349FED366AD4F83414F31A4F
:101CE80007EE903AF8EEE77AEB6867EE867A5B1AC9
:101CF80087EEA87AD4EDD67A37EE277A07EE903AAF
:101D080020EE060AF8EEE77AF6EE006A27EE800A79
:101D180027EE267AC0EE287A84EDD67A94EDD77A23
:101D280077EE877A67EEA67A34E72B69D4F83824F9
:101D38009B1A07EE903AB8EEE77AC7EE287A94ED48
:101D4800D87A77EE877AB6EE007A67EE877A31E747
:101D5800C3E900AB174B93E807000C3387E807008B
:101D680093E8070094F8483384F8493386E8070075
:101D7800002367E7104BC4F86433104BC4F868338A
:101D880074E7064B00200021C3E90201E8E400BF24
:101D9800002000200000FA4300007A43F81E0020CB
:101DA8000000000090D00300400D0300A086010051
:101DB8002C7D8E3F0C1F0020000048430000FA4392
:101DC800D2ED017A91ED017AD2ED026A92ED006AC4
:101DD80037EE277AD1ED027A77EEA67AD1ED006A4E
:101DE80080ED017A76EE866AC0ED027AC0ED006A6F
:101DF80070472DE9F04FDFF814B22DED068B0BF587
:101E08004E75D5E92A3493B0CDE90001C01A61EBCB
:101E1800040132F08FFADFED759A07EE900ADDE9DA
:101E2800003467EEA99AC5E92A34CDED059A2AF05F
:101E380031FD5C46DBEDC77A07460BF5806A0BF28D
:101E4800044670B99FED6A7ACBF8380377EE877A43
:101E5800CAED007AC6ED007A13B0BDEC068BBDE87A
:101E6800F08F9AED006A634BB4EEE76AF1EE10FA70
:101E7800B7EE00AA94BF39EE8A7AB0EE4A7A26EE17
:101E8800077AD3F800E08DED087A96ED007AB4EE83
:101E9800E77AF1EE10FA94BF79EE8A6AF7EE006AF3
:101EA80067EE266A1EF0800CCDED076A26D0524BED
:101EB80093F8EC31002B00F09680D5E90223DDE998
:101EC8000089B8EB020869EB03094C480021494531
:101ED80008BF4045C0F08780DBEDD96AF4EEE67AAA
:101EE800F1EE10FA7FDDDBEDDA6AF4EEE67AF1EE78
:101EF80010FACCBF4FF0030C4FF0010C1EF0040F8A
:101F08000FD0D5E90E23DDE90089B8EB020869EBAB
:101F180003093B480021494508BF404528BF4CF00C
:101F2800040C1EF0100F0FD0D5E91223DDE900894B
:101F3800B8EB020869EB030932480021494508BF9C
:101F4800404528BF4CF0080C1EF0400F12D094F802
:101F5800A8337BB1D5E91A23DDE90089B8EB02087B
:101F680069EB0309264A00234B4508BF424528BFB1
:101F78004CF0100CB4EEE76AF1EE10FAB4EEE77A22
:101F880048BF4CF0200CF1EE10FA48BF4CF0400C62
:101F98009FED1D8ACDF818C0DFF874B08DED098A61
:101FA8000CF00C0CBCF10C0F8DED0A8A8DED0B8A30
:101FB8008DED0C8A8DED0D8A8DED0E8A8DED0F8AD3
:101FC8008DED108A8DED118A0BF1040940F0AD8179
:101FD80094F80834012B00F040811BD3022B00F049
:101FE8004F81002222E04FF0000C87E7BD3786358D
:101FF8006F12833A5C5E002034A0002060E3160074
:10200800400D0300E093040000000000C01B002006
:10201800D01F002094EDE36AF6EE086AB4EEE66A93
:10202800F1EE10FAAABF3A460022022384F80834D7
:10203800BAB1B4EEE77AF1EE10FA48BFD4EDFC7A03
:10204800D4EDE26AC14A43BFD4F8FC13C9F80010C2
:1020580077EEE67A89ED008A4CBFC2ED007A82ED10
:10206800008AD9ED007A94EDF27A69EEA98AE9EE50
:10207800877A022B68EE878AB6EE009A28EE899A4C
:10208800C9ED007A8BED009A40F00881D4EDE28A20
:10209800DFEDAF7A9FEDAF0A78EEC98A68EEE80AFD
:1020A800C0EEA70A33F060F894F80834022B9FEDCD
:1020B800AA7ADFEDAA7AD4EDE36ADDED055A9BED45
:1020C800006AE0EE077A94EDBC7A28EE877A27EE6C
:1020D800277A67EEA77A27EE267A66EEA66AA7EE33
:1020E800256A94EDBD7A8BED006A68EE878A68EE02
:1020F800A78AD9ED007A68EEA68AE5EEA87AC9ED36
:10210800007A11D196ED007AD4EDC77AB4EEE77A69
:10211800F1EE10FA08D5D4EDFC7A94EDE27A8B4B07
:1021280077EEC77AC3ED007A8D4B00931A78052AAB
:102138001CD1D4EDE37A9FED8B7A8B4B67EE877ACF
:10214800FDEEE77A17EE902ADBED007A1A80FDEEB5
:10215800E77A94F808245A8017EE902AD9ED007A85
:102168009A80FDEEE77A17EE902ADA80DDF818906B
:1021780019F0400B17D094EDFF7ADDED056AD4ED28
:10218800FC7AD4EDF25AE7EE267A26EEA66AB6EE87
:10219800005A26EE256AA6EEA57AE6EE057A84EDC3
:1021A800FF7AC4EDFC7A19F0200F30D0DDED058AF6
:1021B800D4EDFA9A94EDFB9AD4EDFDAA94EDFEAA1B
:1021C800EAEEA89AA8EE8A9AC4EDFA9A84EDFB9AE8
:1021D800FFF778FAD8B1D4EDF06A68EEA87AB6EECF
:1021E800006A26EEA77AE8EEA6AAE7EE069A94ED2C
:1021F800F17AC4EDFA9A67EE877AA8EE87AAA7EE75
:10220800869AC4EDFDAA84EDFB9A84EDFEAA19F026
:10221800040F00F0DE8125F0BFF90B465349DDF8C5
:1022280018C0096811F0040F024640F0A98050490F
:10223800D4F8F00308604F48012110EB020884F835
:102248002C144FF0000141EB030942464B46C5E907
:102258003A2394EDDE9A0025CCE0D4EDE36AB6EE9D
:10226800086AF4EEC66AF1EE10FA14DA9FED426AD3
:10227800F4EEC66AF1EE10FAACBF01230023B0E613
:10228800D4EDE36AB6EE086AF4EEC66AF1EE10FA27
:10229800BFF6A7AEEAE700220223C7E62B4AD4ED31
:1022A800FC7AD2ED008A012B77EEE88A36D1D4ED9C
:1022B800E29ADFED327A9FED270A79EEC99A69EE44
:1022C800E90AC0EEA70A32F04FFF9FED237ADFED4F
:1022D800237ADDED056AE0EE077A94EDE37A67EE9E
:1022E800877A78EEC98A3AEE67AA94EDBC7A68EEE6
:1022F8008A8AE9EEA78ADBED007A28EE877AE7EE8C
:10230800267ACBED007AD4EDBD7A68EEA78AD9EDAE
:10231800007AE6EEA87AC9ED007A05E7D4F8FC332E
:10232800CBED008AC9F80030FEE6D4EDFC7A1BED4F
:10233800017AD4F8FC33C9F8003077EEC77A002365
:10234800CBED007A84F80834EEE600BFCC1F0020FD
:1023580000C82F4654F82D406666663FCDCCCC3D6C
:10236800945D002000007A44965D002024450020FA
:10237800E81F002090D00300C3F5A83E00409C450C
:1023880094EDFF7AF2EE0E7AB4EEE77AF1EE10FAF7
:1023980040F31481D5E93A01994208BF904202D22C
:1023A800002384F82C341CF0080F0BD094EDE27A4B
:1023B800F3EE047AB4EEE77AF1EE10FA02D594F867
:1023C8002C349BB91CF0040F3FF443AF94F82C3421
:1023D800002B3FF43EAFCD4BD4EDDE7A93ED007A7F
:1023E800B4EEE77AF1EE10FA7FF733AFC74B93ED0F
:1023F800009A0125D4EDFC7ADDED056A9DED0B7A96
:1024080039EE679AD4EDBB7A29EE276A67EEA77A88
:10241800A6EE267A1CF0020F67EE897A8DED0B7A0C
:102428009DED0E7AA6EEA77A8DED0E7A1DD094ED6D
:10243800FF0AD4EDD88A78EEC08AF2EE097A68EEFF
:10244800E80A9FEDB30AC0EEA70A32F08DFED4ED7C
:10245800BF7A9DED057A68EEA78ADDED0E7A68EE03
:10246800808AE8EE877ACDED0E7AD6ED006A94ED93
:10247800DF7AD4EDBB7A9DED056A37EE667A27EEF2
:10248800277AE6EE076ACDED076A3DB99DED117A28
:1024980067EEA77AA9EE677A8DED117A069BD907C0
:1024A80000F1F38003F05803582B00F0958194ED68
:1024B800FD7AD4EDFE7A94EDC56ADDED056A38EE55
:1024C800477A78EE677A27EE067A67EE867A27EEFD
:1024D800267A67EEA67A8DED0C7ACDED0D7A47B1A6
:1024E800D4EDC77A9DED077AB4EEE77AF1EE10FAEB
:1024F8000DDDD4EDFF7A38EE678AD4EDC47A28EE84
:10250800278ADDED057A28EE278A8DED0E8A814926
:1025180009AA0846FFF754FC7F490CAA0846FFF7AA
:102528004FFCD4EDC67AF5EEC07AF1EE10FA3CDD38
:10253800DDED107A9DED0F6ADDED116A27EEA77AC1
:10254800A6EE067AA6EEA67ADFED746AB4EEE67A0F
:10255800F1EE10FA29D50FA9F1EE677A0846CDED0C
:10256800107A2EF038FAD4EDC67A9DED0F6ADDEDBB
:10257800056A94EDF37A27EE866AA6EE267A9DED33
:10258800106A84EDF37A27EE866A94EDF47AA6EE63
:10259800867A84EDF47A9DED117A67EE877A94ED68
:1025A800F57AA6EEA77A84EDF57A089BCAF800308A
:1025B800079B3360069BC4F838334DE45848002124
:1025C80010EB020841EB030942464B46C5E93A23A2
:1025D800E9E6544B1B6813F0100352D019F00209B6
:1025E80051D094EDFC7AD4EDD57AD4EDD86AD4EDF7
:1025F800FF5A9DED0B6AD4EDDA4A77EEC77A76EE8C
:10260800E56A9DED0E7ABBF1000F0AD177EE867A66
:1026180037EE267ACDED0B7A8DED0E7ACDED074AA1
:102628003CE794EDBE5ADDED055A25EE274AF4EE57
:10263800647AA4EE256A94EDBF4A8DED0B6A25EE07
:10264800056A66EE846A26EE276AF1EE10FAA5EEB0
:10265800867A48BFF0EE647AA5EEA67A8DED0E7AFA
:1026680096ED007A77EEC77A67EE857AA5EEA77AB7
:10267800DDED117A8DED077A37EEC66A8DED116AB8
:102688000CE71F460AE74F4608E7D4EDFA7AD4ED7F
:10269800D38A94EDD49AD4EDD69A94EDD76A78EE8D
:1026A800E78AD4EDFB7A39EE679AD4EDFD7A79EEB4
:1026B800E79AD4EDFE7A9A0636EE67AA36D4DDEDAF
:1026C800097A9DED0D6AD4F86833089377EEA88AE5
:1026D800DDED0A7ACDED098A37EE899ADDED0C7ABF
:1026E8008DED0A9A77EEA99A36EE0A6ACDED0C9A24
:1026F8008DED0D6AD4EDC77A9DED087AB4EEE77AD0
:10270800F1EE10FA3FF7D3AEE9E600BFE81F00206C
:1027180054F82D40A81F0020B41F00207DCA6A4726
:1027280090D0030060450020C3F5A83E29EE090AB1
:10273800A8EEA80A32F0AAFED4EDC05ADDED057A5B
:102748009DED097A94EDC16A68EEA56A66EE299A4C
:10275800A6EEA77A65EE896A8DED097A9DED0A7A6B
:10276800A7EEA67ADDED0C6A8DED0A7A25EEA57A3C
:1027780026EE0A6A68EE878A27EE099A9DED0D7A99
:10278800A7EE897AE7EEA86AA7EE867AE7EEA96A45
:102798008DED0D7A9DED0F7ACDED0C6AD4EDD96AE9
:1027A80077EE688A9DED107ACDED0F8AB4EE660A51
:1027B80037EE499AF1EE10FA9AED007A8DED109AFB
:1027C80048BFB0EE660A30EE470A20EE250AA7EEAB
:1027D800807A8DED087A8DE794EDE37A5FED2E7AB5
:1027E800B4EEE77AF1EE10FAFFF661AED4EDEF7AC7
:1027F80094EDED7AD4EDE26AD4F8FC33049337EE25
:10280800677AD4EDEC7A27EE667A02A98DED027A22
:1028180094EDEE7A77EEC77A084667EEA67ACDEDA4
:10282800037A2EF0C5FADDED036A9DED026AD4ED58
:10283800FE7A94EDFD7AD4EDC35ADDED058A069B48
:10284800F1EE666A76EEE77A36EE477A67EEA57AB3
:1028580027EE257A67EEA87A27EE287ADB07CDEDF2
:10286800036A8DED0C7ACDED0D7A31D5354BD4F860
:102878004C2343F8042BD4F850231A60009B1B7890
:10288800072B7FF437AFD4EDED6A9FED2F7A2F4BEE
:10289800C6EE877AD4EDEC6AFDEEE77A17EE902A59
:1028A800C6EE877A1A80FDEEE77A17EE902A5A80EC
:1028B800244AF2EC017AFDEEE77A17EE901AD2ED8F
:1028C800007A9980FDEEE77A17EE902ADA8011E710
:1028D80094F8E932002BD1D01A4B94EDFA7AD3ED63
:1028E800007A93ED010A9AED009AE6EE287AA8EEAE
:1028F800A60AC3ED007A77EEC77A94EDFB7A83EDEA
:10290800010A30EE470A94EDC27A67EE876A20EE34
:10291800077A20EE000A66EEA86A27EE287AA7EE64
:10292800A70ACDED096A8DED0A7A32F0AFFDD4ED34
:10293800C27A30EE490A20EE270AA8EE809A8DED79
:10294800089A9BE7D81F002035FA8E3C965D002038
:102958000F492DE9F8430846FDF740FC0D4F0E4E90
:102968000E4D0F4C00224FF0000901F13800A1F87C
:10297800E2973A6032602A602260FDF72FFCA1F8E6
:10298800E4973A6032602A602260BDE8F88300BFAD
:1029980060A0002058A8002064A8002050A80020AB
:1029A80054A80020034B1B68DB0601D5FDF722BCA9
:1029B800CEE700BF6045002008B50C4B1B780F2BF5
:1029C80002BF0B4B03221A800A4B1A7B4AB1D3F879
:1029D800B421C3F84C22084A1268C3F854220020D4
:1029E80008BDFFF7DFFF0220FAE700BF945D002073
:1029F800965D002034A00020189B002008B5134BDA
:102A08001B68DA061ED5124B242202FB0030114B3C
:102A1800C1891B780F2B02BF0F4B01221A80FDF7CB
:102A2800C1FB88B98B0701D4FFF7BCFF0B4BD3F868
:102A3800B421C3F84C22C3F850220022C3F8542210
:102A4800022008BD0320FCE70420FAE760450020C7
:102A580064720308945D0020965D002034A0002075
:102A680008B50E202BF070F920B9034B1868C0F395
:102A7800807008BD0120FCE75C45002008B5084BC4
:102A8800084A1B78242101FB032344F21900DB893F
:102A9800184004D02BF0E4FB003018BF012008BD1B
:102AA80034A000206472030808B573499FED736A67
:102AB800D1F86034724A93F82B0007EE900AF8EECA
:102AC800677AF3EE045A87EE867A82ED5F7A93F896
:102AD8002C0007EE100AB8EE477AC7EE067AB7EE72
:102AE800007AF4EE477AF1EE10FAC8BFF0EE477AB2
:102AF800C2ED607A93F82A0007EE900AF8EE677A3A
:102B080093F82F0087EE867A01EE100A93F82E00CC
:102B180093F82D3082ED057A00EE103A00EE900A17
:102B2800B8EE411AF8EE600AB8EE400A81EE061ACD
:102B380002F12C00C0EE860A80EE250AFDF780FB24
:102B4800D1F8603493F82A0007EE900AF8EE677A15
:102B580093F82F0087EE867A01EE100A93F82E007C
:102B680093F82D3082ED077A00EE103A00EE900AC5
:102B7800B8EE411AF8EE600AB8EE400A81EE061A7D
:102B880002F16400C0EE860A80EE250AFDF758FBC4
:102B9800D1F8603493F8270007EE900AF8EE677AC8
:102BA80093F83B0087EE867A01EE100A93F83A0014
:102BB80093F83930DFED337A82ED097A00EE103A76
:102BC80000EE900AB8EE411AF8EE600AB8EE400A34
:102BD80081EE061A02F19C0080EE270AC0EEA50AD3
:102BE800FDF72EFB4FF08043C2F8D8300023C2F81F
:102BF800DC30C2F8E030C2F8E43002F1D400FDF76E
:102C0800EDFAD1F86034987B01EE100A587B1B7BF3
:102C180000EE900A00EE103AB8EE411AF8EE600A9B
:102C2800B8EE400A81EE061A02F5A270C0EE860AD6
:102C380080EE060AFDF704FBD1F86034D97A02F574
:102C4800867001EE101A997A5B7A00EE901A00EEFF
:102C5800103AB8EE411AF8EE600AB8EE400AF2EE01
:102C6800047A81EE271ABDE80840C0EEA70A80EE74
:102C7800270AFDF7E5BA00BFC01B00200000C842C4
:102C880034A0002066668542034B187A18B1034BBE
:102C9800186800F00100704734A00020604500204B
:102CA800094B0A4A1B78242101FB0323D889830690
:102CB80007D410F0400005D0054B1868C0F3001089
:102CC80070470120704700BF34A0002064720308D9
:102CD800604500202DE9F8435B4B1B6813F00403A3
:102CE80000F0A280594B1A7922B15A7912B19B7916
:102CF800002B4CD1564F3E7A36B17B7A022B23D12A
:102D0800FE7A003618BF01263A8940F202239A4219
:102D18001CD197F80B8018F1000818BF4FF0010874
:102D28004C4B4D4DD3F8009019F0100F14D0FFF70D
:102D380097FE044620B395F8640450B1002385F843
:102D480064340B20BDE8F8830026DDE74FF0000867
:102D5800E6E72B681A06F5D4BB7C63B90820FC7932
:102D68002AF0F2FFA8B1A6B1B8F1000F11D084B1D2
:102D780019F0010F0DD0002385F865340720E1E72D
:102D88002B681B06E8D52BF0CDFA002854D1042077
:102D9800D8E70A202AF0D8FF18B1002385F865344F
:102DA800F5E713202AF0D0FFB0B12B68180511D42D
:102DB800B8F1000F13D095F8653483B17EB174B1C2
:102DC80019F0010F0BD097F8F83743B197F9F93795
:102DD800002B04DD0920B5E7012385F865340920B7
:102DE8002AF0B2FF20B12B68990627D406B12CBB74
:102DF80023202AF0A9FF074603202AF0A5FF57B190
:102E08002B6828B141F208029A4319D006B1BCB91F
:102E1800DA0417D4B6B90028B9D02B681B0701D437
:102E2800002CB4D005208DE70B4C84F86534FFF7EF
:102E380017FE84F86404AAE7204683E7062081E7A2
:102E48000F207FE70E207DE724450020284500203D
:102E580034A0002060450020C01B0020054B1B68E3
:102E680013F0040302BF044A82F8F93782F8F837EE
:102E7800704700BF2445002034A00020024B93ED8A
:102E8800000A31F0E3BF00BF4CA800201A4A1B4BD0
:102E9800D178042927D8DFE801F0030626101C00A2
:102EA80093ED630A7047128CD3ED637A00EE102A13
:102EB800B8EEC00A30EE270A704793ED8B0AD3EDBF
:102EC800637AB4EEE70AF1EE10FAD8BFB0EE670AFB
:102ED8007047128CD3ED877A00EE102AB8EEC00A3C
:102EE80030EE270AEBE7128CD3ED877A00EE102A32
:102EF800B8EEC00ADEE700BF70A8002034A00020AA
:102F08000C4B1B6813F0040F10B50B4C0CD0237836
:102F18000A4A242101FB0323DB899B0503D4FFF71D
:102F2800B5FF84ED8B0A10BDD4F88C31C4F82C326F
:102F3800F9E700BF2445002034A00020647203088C
:102F480010B5084C084920462DF0F8FC074B626A7A
:102F58006421B2FBF1F21A80054AA36A93FBF1F3EC
:102F6800138010BD48A200202820002024600020E3
:102F78009060002012F0010F38B5224C10D005687F
:102F8800C4F814524568C4F8185294F8345213F02F
:102F9800010F14BF45F0010525F0010584F83452EE
:102FA80095070CD58068C4F81C0294F834029D0774
:102FB8004CBF40F0020020F0020084F834025207AF
:102FC8000BD594F83422C4F820125B074CBF42F0AA
:102FD800040222F0040284F834220023C4F83832B0
:102FE800C4F83C32084C14E90F0084E80F00FFF7DE
:102FF80087FFFFF7A5FF054A136843F00103136035
:1030080038BD00BF34A0002058A200206045002031
:10301800054B587C03F5CE7203F5C273002814BF24
:1030280010461846704700BF34A0002008B5014676
:10303800FFF7EEFF0A4B90ED036A93ED5F7AD0ED50
:10304800007AD0ED046AE6EE077AC1ED007AFFF760
:10305800DFFFD0ED017AE7EE267AC1ED017A08BDEF
:1030680034A0002070B5FFF7D3FF04461948FDF7D8
:10307800B5F81948FDF7B2F81849194B91F88E219F
:103088000025A3F8145801F27440EAB1154AD3EDAB
:10309800096AD28A81F88E51564207EE906AF8EE94
:1030A800E77AC3ED777A07EE902AF8EEE77A0E4AC8
:1030B800026087EEA67AD4ED027AC3F8BC2077EED8
:1030C800C77AC3ED747A70BD6269C3F8DC21002346
:1030D8000360F8E7D0A0002008A10020C01B002052
:1030E80034A0002070A800200000FAC3044B5874D4
:1030F800044B1B68DB0601D5FDF790B8B2E700BFAB
:1031080034A000206045002008B50020FFF7EEFF3E
:10311800022008BD10B50A4C94F9F93773B194F838
:10312800F8375BB1FFF73EFC0020FFF7DFFFFDF744
:1031380019FD002384F80C38022010BD0320FCE799
:1031480034A0002008B50020FFF7D0FF054B64220B
:10315800D3F8B43193FBF2F3034A1380FFF722FC50
:10316800002008BD34A0002000000010F8B5274F4B
:10317800274B284D9A8DB7F87831B7F87A6195EDD5
:10318800770A2DED028B08EE100A9B1A1CB2B61AAC
:10319800B8EEC88AFFF73CFFDFED1F7AD0ED050ACD
:1031A80036B228EE278A07EE906AB8EEE72A07EECD
:1031B800904A0021F8EEE71AB0EE481A05F19C0093
:1031C8002DF03EFCBDEEC00AF0EE480A10EE103AB3
:1031D8001BB207EE903A0421B8EEE70A07F27440F2
:1031E800A5F8143826F0BFFABDEEC00A10EE103A62
:1031F8001AB2A242234603DB96423346A8BF1346BF
:10320800BDEC028BA5F81438F8BD00BFC01B002028
:1032180070A8002034A00020BD3786353B4908B58A
:1032280091ED747A06EE900AFFF7F2FED0ED027A7D
:10323800487B374A37EE677AD1ED097A0B4627EE95
:10324800277A00285DD0D28A514207EE901AF8EE0C
:10325800E77AF4EEC77AF1EE10FA0ADC07EE902A64
:10326800F8EE677AF4EEC77AF1EE10FA58BFF0EE8E
:10327800477A93ED776AC3ED0A7AF5EEC07AF1EEF4
:1032880010FAB5EEC06A4CBFF1EE675AF0EE675A15
:10329800F1EE10FA4CBFB1EE467AB0EE467AF4EE93
:1032A800C75AF1EE10FA2EDDB8EEE67ADFED196AAC
:1032B80027EE267ADFED186A27EE267A76EE476A39
:1032C800F4EEE76AF1EE10FA08DC76EE076AF4EE3F
:1032D800E76AF1EE10FA58BFF0EE676AC3ED776A55
:1032E80093ED770A31F0B2FD47F6FF739842A8BF15
:1032F80018460A4B9842B8BF1846094BA3F88404ED
:1033080008BD528AA0E7C3ED777AE9E734A0002028
:1033180070A80020BD3786350C2244435A80FFFF31
:10332800C01B002030B504230B700023C1E9013312
:10333800C1E903338B82A52385B00C468B7578B918
:10334800184B1B68DB0709D5174BD3F868244A606C
:10335800D3F86C24D3F870348A60E36005B030BDCC
:10336800FF280AD1FFF754FE01A92DF0E7FA019BC7
:103378006360029BA360039BEFE7451EEBB23B2B08
:10338800ECD80A4B93F9F9279042E7DC182202FBA4
:10339800053505F516750FCD0FC495E8030084E8CB
:1033A8000300DBE760450020C01B002034A000209C
:1033B800F8B50C4B1B685B0712D40B4B93F8F85706
:1033C80065B10A4E0124182707FB0461E0B20134F5
:1033D800FFF7A8FF3D2CF7D110F020F82846F8BDDC
:1033E8000025FBE72445002034A0002030200020E1
:1033F800F8B52DED028B0746F0EE408A24F0CCF8A4
:1034080004460D46FFF704FE2E4E90ED028A3FB9A2
:103418002D4BC6E9004583ED748ABDEC028BF8BDDF
:103428002A4B1B68DB0642D5D6E90023A01A61EBBC
:10343800030130F07FFF264BDFED267A1B7807EE7D
:10344800100A042B67EE277A0ED1BDEEE87A224BDC
:1034580017EE102A9FED217A1A8027EE877ABDEEA3
:10346800C77A17EE102A5A809FED1D7AF4EEC77AB4
:10347800F1EE10FA18D8144BDFED1A6A93ED747A4E
:10348800A8EEA77A78EE667AB4EEE77AF1EE10FA4B
:1034980008D478EE267AB4EEE77AF1EE10FAD8BFBF
:1034A800F0EE477AC3ED747AC6E90045B5E7064BF6
:1034B80093ED097AC8EE877A37EE888A83ED748AA5
:1034C800F2E700BFE825002034A000206045002076
:1034D800945D0020BD378635965D002000007A4453
:1034E800CDCC4C3E0000FA4308B5074BDFED077A18
:1034F8001B8B00EE103AB8EEC00A012020EE270A16
:10350800FFF776FF002008BD70A800209A9999BEA1
:1035180038B52DED028B07EE901A08EE102A0446F6
:10352800FFF776FD9FED157AF8EEE77A0546C7EEC8
:10353800878ADFED137A68EEA78AB8EEC88AB0EEFC
:10354800680A26F00DF8D5ED007AE8EE007AC4EDA9
:10355800007AFFF75DFDB0EE680A054625F09EFF8C
:10356800D5ED017AE8EE007AC4ED017AFFF750FD57
:10357800BDEC028B8368A36038BD00BF0000C84261
:1035880035FA8E3C074B1B68DB0610B5044605D59B
:10359800FFF73EFD07C884E8070010BDBDE81040EE
:1035A80044E500BF6045002008B50146FFF730FD3F
:1035B80090ED007AD0ED017AD1ED000A91ED010A83
:1035C80070EEC70A30EE670A25F0F6FEDFED077ADF
:1035D8009FED077A20EE270ABDE80840C0EE077A7B
:1035E800FDEEE77A17EE900A25F095BE0000C84276
:1035F80035FA8E3CD30770B504460E46154606D5F7
:10360800154B0268C3F8C8214268C3F8CC21A80743
:1036180008D500209FED110AFFF7EAFE0E4BA268BD
:10362800C3F8D021690703D50B4BC3F8E06170BD1F
:103638002A0706D52046FFF7B7FF074BC3F8E00176
:10364800F5E7EB06F3D52046FFF7AEFFA0F58C4073
:10365800503825F060FEF0E734A00020000000009C
:103668002DE9F04F2DED088B10F0100F83B00646B2
:1036780090469946B34C00F01E8194F83830B24D0C
:10368800B24E002B00F0A78094F84930002B00F0D0
:103698000D81D4E91023B8EB020069EB030130F087
:1036A80049FEDFEDAB7AB5F8523007EE100A27EE87
:1036B800278A07EE903AF8EEE77AB4EEE78AF1EE59
:1036C80010FA80F28380B5F8503007EE903AF8EEA1
:1036D800E77AB4EEE78AF1EE10FA03DD2AF048FE45
:1036E800002873D1B5F8541000296DD0FFF790FC6D
:1036F80007EE901A90ED027AF8EEE77AF4EEC77AC0
:10370800F1EE10FA94BF0123002384F84830B5F88D
:103718004C3007EE903AF8EEE77AB4EEE78AF1EE2D
:1037280010FAC0F2C380B5F84E20B5F84A3062B33B
:1037380078EE677A07EE102AF5EEC07AF1EE10FA05
:10374800B8EE476A44D4F4EE467AF1EE10FAC8BFF0
:10375800F0EE467AB4F87821B5F848108A4238BFB6
:103768000A4607EE102AF8EE476A07EE103AB8EE56
:10377800477A37EE667A67EE277A87EE867A77EEAB
:10378800266AFDEEE66A16EE903AF38094F8483021
:1037980013B9142028F0D6FB95F85610D4F86024F5
:1037A8006FF009034B4300EE103A0027B2F95200BC
:1037B8003780B8EEC00A28F017FDB780708003B0D4
:1037C800BDEC088BBDE8F08F0B469EE701239CE714
:1037D800DFED607ABEE7604BDFED606AD3ED037A18
:1037E80093ED048AF5EEC07AF1EE10FA4CBFB1EE13
:1037F800677AB0EE677AB4EEE67AF1EE10FACABFED
:1038080093ED057ADFED538AC7EE278A28F0FCFD91
:1038180095F85730B0EE409A00EE103ADFED507A46
:10382800B8EEC00A20EE270A25F09AFEB5F8443013
:1038380007EE903AF8EEE77AB4EEE78AF1EE10FA7E
:1038480037DDB4EEC09AF1EE10FAACBF01230023C5
:10385800B5F8422007EE902AF8EEE77AF4EEE87A17
:10386800F1EE10FA40F15084B5EEC08AF1EE10FA8C
:1038780040F34A84D4E90A01D4E90C23121A63EB11
:103888000103B5F8461012EB08024FF47A7043EBC7
:103898000903484300218B4208BF8242C4E90C2334
:1038A800C4E90A8902D3012384F83830FDF738F9CE
:1038B8006CE70023CCE710F0080557D0B4F9383A84
:1038C800D4F86064214DB6F9500000EE103AB8EE15
:1038D800C00A28F089FCB4F93A3A288000EE103A78
:1038E800B6F95200B8EEC00A28F07EFCD4F8443A83
:1038F80068801B7B07EE903AB4F93C3AF8EEE77A19
:1039080006EE903AB2EE047A67EE877AF8EEE66A47
:103918009FED147A76EEA76A77EEA77A66EE876A45
:1039280086EEA77ADFED107A77EE677AF1EE677A9E
:10393800FDEEE77A17EE903AAB80B4F8303AEB80B8
:103948003DE700BFC01B002070A800208860002051
:103958006F12833A0000000000000010F366DF3F9A
:1039680035FA8E3C00007A440000FA4310F0010357
:1039780000930ED02AF074FC002840F03F81FCF739
:103988004DFCFFF745FBA64B0222D3F8B411FFF715
:1039980031FE16F0020B0ED0D4F8682AA149A24BCA
:1039A800A8EB02028A42C3E9008940F3B781C3E960
:1039B8000289FCF71FFC2368D8040AD5984B1B7BA7
:1039C8003BB19A4D94F88A11B5F9000025F094FCA2
:1039D8002880B1073FF4F3AE954A217C158F978E66
:1039E800538F924609B3BBF1000F1ED08C4A9AF848
:1039F8003000B2F90EC86FF0090101FB00F29445DE
:103A080005DB00EB800252006245A8BF624607EE64
:103A1800902AD4F860140193B1F95000B8EEE70A7F
:103A280028F0E2FB814A019B108094F8202006F4DC
:103A3800804B002A00F09E80009A002A00F09A80AD
:103A4800774A9AF83210B2F910C86FF00900484363
:103A580084459AF8311005DB01EB81004000604590
:103A6800A8BF6046DB1B19B203B208EE103AD4F8BF
:103A780060340192B3F952000091B8EEC80A28F0F8
:103A8800B3FB6A4B9AF83CC018EE102A4042ED1B73
:103A980058800A2092FBF0F01CFB00F000B22DB217
:103AA8001F46DDE90012BBF1000F00F0C582A842F5
:103AB800C0F2C88200EAE07026F47F5626F03D0680
:103AC8007604760C022E00B219D1D4F8903ADFF8B9
:103AD80054C1584EA8EB03036345C6E9008940F377
:103AE800B382C6E90289002363620023184400B246
:103AF800A84203DB8142A8BF01460D4628B2BAF8A6
:103B08003410BAF83830BAF83A200844984203DB3F
:103B180082421346A8BF03469AF85920B4F87A019E
:103B28009BB2002A00F0EE822268920500F1EA8238
:103B3800B7F9062007EE902AB8EEE77ADFED3E7A6D
:103B4800B4EEE77AF1EE10FA40F1DA82551A002D58
:103B5800A8BF5B199BB29142ACBF0022012284F836
:103B6800A02AB4F87821934203DB98420246A8BF02
:103B78001A46FA80BBF1000F3FF421AE2849CB79F1
:103B880073B1FFF745FABAF81A3090ED027A07EEEA
:103B9800903AF8EEE77AB4EEE77AF1EE10FA11D936
:103BA8008B7A022B7FF40BAEBAF81A3091ED697A52
:103BB80007EE903AF8EEE77AB4EEE77AF1EE10FA0B
:103BC8003FF6FDAD194D1D4AB4F87831EB80136806
:103BD80043F08003136000232B809AF94030D4F817
:103BE800602403EB83035B0000EE103AB2F9520045
:103BF800B8EEC00A28F0F8FA6880E0E504F6482232
:103C0800D4F8483AC2E90089064AA8EB030393426C
:103C180016DD04F52563C3E90089FCF7FFFAB8E669
:103C280034A00020400D03002826002088600020D2
:103C380070A800205026002000C0F34460450020F2
:103C4800824FFB79002B63D0FB78002B5FD004F503
:103C58002563D4F8501AC3E900897D4BA8EB01010C
:103C6800994258DCFFF7D4F97A4A9FED7B7A92F8AB
:103C7800313092F83220D7ED746A03EB83035B008E
:103C880007EE903A6FF009035343F8EEE78A07EE20
:103C9800903AB8EEE78A07EE901AB8EEE79ADFEDA9
:103CA8006F7A29EE279AD0ED027A86EE870A29469E
:103CB80007F58670C7EE870ADFED697AB0EE682AE5
:103CC80060EEA70AF0EE481AB0EE491A20EE270A6D
:103CD8002CF0B6FEF0EE490A022104F6582025F031
:103CE80042FDB4EEC08AF1EE10FA08DCF4EEC08AA8
:103CF800F1EE10FA54BFB0EE408AB0EE688ABDEE1D
:103D0800C88A18EE103AA7F810380123BB710123AE
:103D180084F820303DE6FCF781FAF6E74B4D2A7A25
:103D2800002A00F08781AA78002A00F07181D4F86F
:103D3800702AC3E90289464BA8EB02029A4209EEAF
:103D4800102A00F37481FFF763F995ED738AD0EDBB
:103D5800017AD5ED728AD0ED000A3E4F38EE678AB7
:103D680078EEE08A28EE080AA8EEA80A31F08EFB61
:103D78002B783C4ADFED387A95ED717A242101FBE6
:103D88000323B4EEE77AF1EE10FADB89D8BFB0EE80
:103D9800677ADFED357A13F4806F27EE27BAB0EE35
:103DA80067AA69D095F9F9275AB195F90C38013AFB
:103DB800934206D0182202FB035393F86E32A52BC8
:103DC8005CD1FB8F09EE903AFFF722F9F8EEE99AF9
:103DD8009FED267AC9EE877A8246B4EEE70AF1EEBD
:103DE80010FA4BD8DFED227AB4EEE70AF1EE10FABA
:103DF80044DD2368DB0441D4F1EE680AB1EE480AD9
:103E080025F0DAFADFED1BAAD5ED728A70EE2AAA40
:103E1800B0EE6A0A25F0A4FBE9EE808AB0EE6A0AE1
:103E280025F03CFB95ED738ADAED017ADAED000AAC
:103E3800A9EE808A78EEE08A38EE678A28EE080ACA
:103E4800A8EEA80A31F022FB18E000BF34A0002039
:103E58003F0D030070A800200000C842BD3786351A
:103E68000AE81C4164720308CDCCCC3EBE30893EC2
:103E780000004842DB0F493F9A07A2D4FFF7C8F871
:103E88008BEE007AD0ED007AE7EE287AF0EE678ABA
:103E9800C4ED017AFFF7BCF8D0ED017A2B7BE7EE91
:103EA800087AB0EE678AC4ED027A13B39C4B94F893
:103EB8008A11B3F9000025F01FFA00B2C8B1BB8A15
:103EC800DFED986A584307EE900AF8EEE77A012387
:103ED80087EEA67A2B7367EE0A7A95ED6E7AE7EE8F
:103EE800C78A95ED6F7AC4ED018AA7EE878A84EDBB
:103EF800028A8D48FFF758FBD5F8B4A1A0EB0A0059
:103F080025F015FA0028C4F8780A44F26823B8BFE7
:103F1800404298427FDD012384F87C3A94F87C3A49
:103F28000BB1C4F8780ADFF824C28048DCE9002322
:103F3800B8EB020269EB03030021994208BF9042E3
:103F480026D263460833D3ED007AD4F8782AF5EE02
:103F5800C07AF1EE10FA48BFF1EE677A002AB8BFCE
:103F6800524207EE102AB8EEC77ACCE90089B4EEBF
:103F7800E77AF1EE10FA4CBF0122002284F88C2A6D
:103F8800D4F8782A07EE902AF8EEE77AC3ED007A9B
:103F980097F8301094F88C3ADFED657A654864221A
:103FA800002B11FB02F302EE103A6FF0630303FBE0
:103FB80001F301EE903AD4F8783AB8EEC99A53442E
:103FC80000EE103A29EE279A07EE90AA08BF0121C1
:103FD800F8EEE70A18BF0521B8EEC22AF8EEE11A92
:103FE800B0EE491AB8EEC00A2CF02AFDF0EE490AE4
:103FF8000A21514825F0B7FBF2EE047A80EE270A31
:10400800BDEEC00A10EE103AA5F80E3801236B7108
:1040180001232374CFE442F2273398423FF77EAF5F
:1040280094F87C3A002B3FF479AF002374E7FCF74F
:10403800E1F8EBE72274BEE4A84203DB8842A8BF9C
:10404800084639E5284637E5137A002B55D093788A
:10405800002B44D0D4F8983AC6E90289374EA8EB29
:104068000303B34246DC92ED717ADFED357A9FEDBA
:10407800356A77EE676AF5EEC06AF1EE10FA48BF66
:10408800F1EE666AF4EEC66AF1EE10FA13DD37EE69
:10409800C77AF7EE087A27EE277A07EE903ADFED2F
:1040A800246AF8EEE77A67EEA67AD4ED096AE7EEB5
:1040B800276AC4ED096AD4ED097AF5EEC07AF1EE03
:1040C80010FA14D49FED177AF4EE477AF1EE10FA4D
:1040D800C8BFF0EE477AC4ED097A01235371D4EDD5
:1040E800097AFDEEE77A17EE903A1BB2FEE4DFEDAF
:1040F800167AF0E700236362EFE700236362EEE7D6
:10410800034628E500222AE5002B7FF4B3AB002202
:104118000023C4E90A89C4E90C23FFF7C7BB00BF21
:10412800886000200000FA43C41B00201FA107007C
:10413800BD37863578A10020D41B00203F0D030031
:1041480000002F44000048420000000040260020E4
:1041580038B5034607C8084D05F2FC7484E8070023
:104168001846FFF721FA0722C5F808080146204635
:10417800BDE83840FFF73EBA34A00020F0B589B05A
:104188004B6801938B680293CB6803930D460746EF
:10419800D8B93B4B1B685C0746D53A4B1A7A002ABC
:1041A80042D093F8EC21002A3ED0DB7B002B3BD099
:1041B800012204A901A82CF085FB07231A463946D9
:1041C80004A8FEF7D7FE09B0F0BDFF282CD10A7865
:1041D800012A29D12A4B1B68580725D5294B197A5A
:1041E800022921D193F8EC11F1B1D97BE1B11B7807
:1041F800052B19D104A901A82CF064FBEB68B5F9CB
:104208001010002B01F1FF339BB20CBF01220322D7
:10421800B3F5B37F4FF0640398BF42F004025943EB
:1042280004A8FFF7E7F9CEE77C1EE3B23B2BCAD818
:10423800134B1B685907C6D42B78012B01D0042BCC
:10424800C1D1104B93F9F927013297429C4601D00E
:10425800012FB8D118232E4603FB04C40FCE04F552
:1042680016740FC496E8030084E803008CF8F97705
:10427800AB7DA3F1A502534253418CF8F837A2E76E
:104288002445002034A0002038B50F4B1B685B077D
:1042980018D4FEF7E3FD0D4D01242946E0B2FFF7DF
:1042A8006DFFAB7DA52B04D001343D2C05F118051D
:1042B800F3D1074991F8F8270AB9FEF7CFFD91F82D
:1042C800F80738BD0020FCE72445002048200020DE
:1042D80034A0002008B50146FEF79AFE90ED007A5A
:1042E800D1ED007A91ED010A77EEC77A90ED017A67
:1042F80030EE470A20EE000AA7EEA70A31F0C6F80A
:10430800FCEEC07A17EE900A08BD70B5184B194E2E
:104318001D68F38C4BB3184CD4F80032EB1A642B9D
:1043280023D904F50570FFF7D5FF07EE900A94ED41
:10433800847AF8EE677AB4EEE77AF1EE10FA05DDE2
:10434800C4ED847A0120C4F8005270BDF38C77EE76
:10435800C77A07EE103AB8EEC77AF4EEC77AF1EEEC
:1043680010FAD4BF01200020EDE70120EDE700BFDF
:10437800189B002070A8002034A0002038B51C4DE0
:10438800EB7A0BB90A2038BD2B7AF3B1194B1C68AC
:1043980014F010041ED1D5F8B431D5F83002C01A83
:1043A80024F0C5FF0028B8BF404240F2DB539842D2
:1043B80010DDFFF7AAFF0028E4D00F48D5F8301227
:1043C8000722FFF717F92046DDE7FBF7EBFE002889
:1043D800DCD0D7E7FCF76CFB00209FED080AFFF75D
:1043E80007F8FBF7CDFE002814BF02200820CAE713
:1043F80034A000206045002058A2002000000000E2
:1044080007C80A4B10B50A4C1B68C4F8003204F5FB
:10441800017383E8070004F50570FFF75BFF07EEFB
:10442800900AF8EE677AC4ED847A10BD189B0020D4
:1044380034A0002010B50C46FFF74CFF134B1B6847
:1044480013F0100F124B1AD0CCB19A89904214D99C
:10445800DB8FDFED106A07EE103A07EE900AB8EE30
:10446800C77AF8EE677A27EE267AF4EEC77AF1EE85
:1044780010FA94BF0120002010BD0120FCE79B89A1
:10448800834234BF00200120F6E700BF60450020CA
:1044980070A80020CDCC8C3F38B51B4D2B7A4BB380
:1044A800EB7A3BB395F90C38182202FB035305F25B
:1044B800FC7093F858120B1F59425941FFF7BAFF85
:1044C8000446F0B905F2FC70FFF76EF8D5F8083825
:1044D800C01A24F02CFF0028B8BF404242F21073E3
:1044E80098420EDC05F2FC7009222146FFF782F89B
:1044F800204638BDFBF756FE002814BF0A200020CE
:10450800F7E70220F5E700BF34A0002038B5194DC1
:10451800EB7A0BB90A2038BD2B7A33B3012105F5A4
:104528000970FFF787FF40B105F509700722D5F834
:104538003012FFF75FF80220EDE7FFF7E6FE0028EC
:10454800E8D00D4B5B7963B10C4B1C6814F0100478
:1045580007D11322214605F50970FFF74BF8002013
:10456800D9E70B2200210648F7E7FBF71BFE0028D6
:10457800D1D0CFE734A0002070A8002060450020EB
:1045880058A200202DE9F0472DED048B714B82B025
:104598000546D3F80080FBF705FE002840F0D580DB
:1045A8006D4E6E4C96F80090B9F10F0F01BF6C4B31
:1045B80002221A809880237B002B40F0C880A77BBA
:1045C800002F4DD0674BDFED685A93F85830D4F878
:1045D80054226FF06301594307EE901A4FF0640AB2
:1045E800F8EEE76AD4ED937A13FB0AF3B8EEE76ABC
:1045F80007EE903A5D4BF8EEE77AB3F9043037EE00
:10460800E67A07EE903AF8EEE77AA8EB020277EE40
:10461800A57ADFED575A67EE277A652A87EEA57ADD
:1046280028BF002207EE902A77EE266AF8EEE77A8E
:1046380066EEA77A87EEA57A76EE477AFDEEE77AF8
:1046480017EE900A24F067FEB9F10F0F08BF444B2C
:10465800C4F84C02C4F8548204BF90FBFAF05880A6
:10466800D4F85432A8EB0308B8F57A6F84BFD4F8AD
:104678004C32C4F850323F4B1B3DB3F92020EDB209
:10468800C2EB0212052D4FEA820204D82D2323FA29
:1046980005F5EB0700D4B7B1D4F84C123648FEF74D
:1046A80037FF33780F2B02D12D4B01229A803248E5
:1046B800D4F84C120122FEF79DFF002002B0BDEC99
:1046C800048BBDE8F0872C480192FFF703FE254BC9
:1046D800DFED2A6ADB8F019A07EE900AB8EE677A57
:1046E80007EE903AF8EEE77A67EEA67AB4EEE77A44
:1046F800F1EE10FADBD807EE902AB8EEE78AD4ED8F
:10470800937A9FED1F7A94ED909AF8EEE77AC7EEC8
:10471800878ADFED1C7A68EEA78AB0EE680A24F073
:104728001FFFA8EE009AB0EE680A84ED909A24F074
:10473800B5FE94ED919A3378A8EE009A0F2B84ED8C
:10474800919AB4D1064B0222B0E70420B6E71020B4
:10475800B4E700BF189B0020945D002034A000201F
:10476800965D002070A800200000FA4388600020B1
:1047780000007A44F05F002074A20020CDCC8C3F6A
:104788000000C84235FA8E3C10B5124C94F90C382A
:10479800182202FB034386B093F85822012A12D14B
:1047A800D3F85C120391D3F860120491D3F8643201
:1047B800059303A869462CF085F86846FFF7C8FCFE
:1047C800022006B010BDFEF723FCFFF719FE04F522
:1047D8000970F3E734A000209A4B1B685A072DE9AB
:1047E800F34703D4022002B0BDE8F087964B1B685C
:1047F800DB062FD522F0D0FEFFF787FD002800F05A
:104808001F8192490B8B00EE103A914B9A7A022A3B
:104818001C46B8EEC00A40F0DC8093ED697ADFED03
:104828008D7AB4EEE77AF1EE10FA40F1D280DFED3E
:104838008A7A20EE270AFBEE0E7AB4EEE70AF1EE4A
:1048480010FA4FF0010058BFB0EE670AFEF7D0FD2E
:104858000020C8E7814E22F09FFED6E900231343CB
:10486800CDE9000103D103460C46C6E90034784F70
:10487800DFF80082FEF7CCFBD7ED716A9FED787AFE
:10488800D0ED057AD6E90023DDE90045F4EEC76AE4
:10489800F1EE10FACCBF01210021A41A65EB030543
:1048A8004FF00009A94508BFA045F0EEE77A6D4A28
:1048B80002D3002300261AE0D2F87431B2F9A26AB2
:1048C800581CD2F87031C2F874013344C2F8703100
:1048D80093FBF0F3283B9E42EBDAB3EE097AF4EE51
:1048E800C77AF1EE10FA5FDC81F0010601235E4819
:1048F800DFF8849100780328B24634D1B3EE097A00
:10490800F4EEC77AF1EE10FAD4BF4FF0050C4FF071
:10491800000C81F0010101EB4C014FEA830C634468
:10492800524803EB830301EB83030380D2F874310D
:1049380080463BB1D2F8701191FBF3F1B2F8A23A7C
:104948005B1A1BB2D9E90045DDE90001001BA8F894
:1049580002304FF47A724FF0000361EB05012FF03B
:104968007FFDA8F80400BB7A022B15D197ED697A70
:10497800B5EEC07AF1EE10FA0EDB66B1D7ED707ABB
:10498800F1EE046A77EEA67AB4EEE77AF1EE10FA61
:1049980094BF01260026B246BAF1000F06D1DDE920
:1049A8000034C9E9003427E7012383E7D9E9002364
:1049B800DDE90045A41A65EB0305244BDB8D4FF4B4
:1049C8007A725A43D317AB4208BFA242FFF40AAF28
:1049D80012E7FEF71DFBD4ED877A4A8B90ED027A39
:1049E8008B8B37EE677A07EE902AF8EEE77A9B1AF8
:1049F80037EE677A07EE903AF8EEE77AC7EE276A5D
:104A0800B5EE007AF6EE087AB0EE476AA6EEA76A27
:104A1800B4EEC76AF1EE10FAF0EE467A0DD4B7EEAE
:104A2800007AB4EE476AF1EE10FAC8BFF0EE477AA2
:104A380027EEC00ADFED0E7AFFE6F0EE477AF7E7D9
:104A48000A20D0E6244500206045002070A80020F8
:104A580034A00020000048429A9919BE281D002061
:104A68000000C842C01B0020945D0020965D002015
:104A7800000048C240420F00201D002038B50546FE
:104A8800FFF7AAFE0228044604D12846FCF7C4F81A
:104A9800204638BD0020FCE770B5FFF736FC20B192
:104AA8002A4E718C59B9002008E0294B1B7A002B3B
:104AB800F6D1FBF777FB0028F2D00A2070BD07EE8D
:104AC800901A234CF8EEE77A94ED747AB4EE677A8C
:104AD800F1EE10FAE7D094ED8B7AF4EEC77AF1EEA6
:104AE80010FACCBF01254FF0FF35FEF791FA90ED93
:104AF800027A738A77EEC77A07EE105AB8EEC77A49
:104B080067EE877A07EE103AF8EEC76A87EEA67A5C
:104B1800F7EE007AB4EEE77AF1EE10FA0CD507EE6C
:104B2800901AF8EE677A0222002104F50970C4EDA4
:104B38008B7AFEF75FFDB6E76B4300EE103A012073
:104B4800B8EEC00AFEF754FCADE700BF70A800201D
:104B580034A0002030B52DED028B3A49CB7A85B0D0
:104B680023B90A2005B0BDEC028B30BD0B7AA3B384
:104B7800D1ED8B6AD1ED877A334C9FED347A236877
:104B88009FED338A76EEE77A13F01001F5EEC07ADE
:104B9800F1EE10FA48BFF1EE677A67EE877A9FED7B
:104BA8002C7AF4EE487AF1EE10FA48BFF0EE477A24
:104BB800FEF72EFA90ED027A37EE667AF1EE677A12
:104BC800B4EEE77AF1EE10FA02DC224D2A796AB9DE
:104BD80009B1FFF715FC0220C4E7FBF7E3FA002848
:104BE800C6D01C4B1B7A002BC2D1BAE7A9B12468E6
:104BF800194A14F0100401AB14D007CA83E807005F
:104C0800DDED037A37EE888A02228DED038A0021D2
:104C18001846FEF7EFFC0020A4E7FFF776FB002814
:104C2800E5D19EE707CA83E80700DDED037A6979D5
:104C380037EE888A8DED038A09B11222E7E70A2246
:104C4800E6E700BF34A00020604500209A99193E8D
:104C58000000C84270A8002058A20020F0B5304BD0
:104C6800DA7A85B01C46002A56D0DA79002A53D061
:104C78001A7A022A50D12B4F3A68D5074CD512F030
:104C8800100F294D07D0AA8CD3F83812914202D2BE
:104C98009B7C002B42D0254B242202FB0030C68986
:104CA800B10701D4FDF77EFEF20701D5637C23B17D
:104CB8000020FEF71BFAFBF755FFAB8CD4F838221F
:104CC8009A4211D2FEF7A4F907230522D4F8B411A9
:104CD800FEF750F9FEF79CF90722D4F8B411FEF755
:104CE80089FC0C2005B0F0BD3B68DB060DD5104AE9
:104CF800D4F8B41101A8FEF70BFC01A80522D4F8DA
:104D0800B411FEF777FC0220ECE701A8FEF73AFCA5
:104D180001A8FFF775FBF0E70A20E3E70420E1E7C5
:104D280034A000206045002070A8002064720308A9
:104D3800A08601001FB50C4C237C93B101A8FEF797
:104D480021FCFEF765F90222D4F8B411FEF752FCF3
:104D58000522D4F8B41101A8FEF74CFC00232374F3
:104D6800E373002004B010BD34A000202DE9FF41FA
:104D78001E4A1F4C242303FB00230546DE8994F8B2
:104D88001180FBF785FE0023B10707462374E37300
:104D980001D4FDF707FEF20701D5B84505D0FBF7AA
:104DA80077FEFEF7A3F9FBF7DDFE40F2012333405F
:104DB800012B03D1730501D4B84506D0FEF728F9B5
:104DC8000222D4F8B411FEF715FC093D022D08D9CA
:104DD80001A8FEF7D7FB0522D4F8B41101A8FEF705
:104DE80009FC022004B0BDE8F08100BF647203082A
:104DF80034A0002010B5074C237C4BB1FEF708F90E
:104E08000222D4F8B411FEF7F5FB00232374E373F0
:104E1800002010BD34A0002010B50446FFF7EAFFBB
:104E28002046BDE81040FDF7C7BD10B50446FFF7A2
:104E3800E1FF2046BDE81040FFF7A4BB144AF8B5CF
:104E4800242303FB0020134CC589677CFBF720FE55
:104E58000023EA0706462374E37301D5874203D08B
:104E6800FBF716FEFEF742F940F201232B40012B17
:104E780003D16B0501D4B74208D0FBF773FEFEF7E8
:104E8800C7F80222D4F8B411FEF7B4FB0220F8BD2B
:104E98006472030834A00020074B1B68DB0610B5BA
:104EA800044606D5FFF7CAFF2046BDE81040FDF7C7
:104EB800A5BD032010BD00BF6045002070B5164693
:104EC800032813D8DFE800F002072D3100230B7206
:104ED8000B60132070BDFEF79BF8D0ED027AFDEE53
:104EE800E77A17EE904A142394FBF3F534B30620BF
:104EF80095FBF0F300FB1353DBB2C3F11300C0B210
:104F0800152816D9C3F10D03D8B24B68F31A642BD0
:104F1800E0D90B68A34213DA01230B7200234B720A
:104F280016E00E4BB3F92040DDE70D4B1C88052336
:104F3800DAE70F28E9D8C3F11903E5E71320E4E716
:104F480001DD0223E9E74B7A032B04D900230B7216
:104F5800C1E90046BEE70133E1E700BFF05F00208A
:104F68002460002038B52E4C0D4684ED630AC4ED4C
:104F7800660A84ED691AC4ED6C1A002845D0FDF75D
:104F8800BFFF0223E3710123E370264BA5721B6860
:104F9800C4F8E831244B1B685B073DD5A37A022B84
:104FA80014D1B5EEC01AF1EE10FA0FDDD4ED707A17
:104FB800F5EEC07AF1EE10FA2BDDF4EEC17AF1EEDF
:104FC80010FA58BFF0EE417AC4ED707AFEF720F877
:104FD800D0ED027A1549FDEEE77A17EE903AC1F85E
:104FE800AC3AFEF715F8D0ED057AFDEEE77A47F60C
:104FF800FF7217EE903A9342A8BF13460C4A9342A9
:10500800B8BF1346A1F8B43A38BDE071A072E07099
:10501800C0E784ED701AD9E7064BC4F8C031D5E76C
:1050280034A00020189B002024450020C01B00202D
:105038005A80FFFF000080BF2DE9F8434A4B4B4CD4
:105048001F684B4D2378242606FB03538046996836
:10505800A1B1D87C90B1474AD2F8B83AFB1A994224
:1050680091460BD8FBF712F9237806FB03535B68CC
:1050780013B1984700285BD1C9F8B87AB8F1000F86
:1050880013D02078242606FB00504044807C60B171
:10509800FBF7FCF8237806FB03535B6813B19847CA
:1050A80000284DD1334BC3F8B87A3349314B0968DE
:1050B8000022490783F85020227808D5242101FBD3
:1050C8000251C9898F0543D5022183F85010242144
:1050D80001FB02552A7B83F851206A7B83F8522012
:1050E800002283F85320227B12B1012283F8532037
:1050F800627B2AB193F8532042F0020283F85320CE
:1051080094F90C28D1B23B2901F101009CBF182168
:1051180001FB024483F8540098BF94F858224FF0DA
:10512800000083F8550098BF83F85520BDE8F88340
:10513800237806FB03531844807C002892D19BE710
:10514800237806FB03531844807C0028A0D1A9E7E4
:105158004E0501D50321B8E7080701D50F21B4E7AB
:105168008907B4D50121B0E7189B002034A000209E
:1051780064720308C01B00202445002070B5054652
:1051880022F00AFA4FF47A73064A6B43C51802F5FF
:105198002C6441F100060123C4E9005682F8C83A9C
:1051A80070BD00BFC01B00202DE9F0411C4B93F8D7
:1051B800BD62174605461B4A00F8011B97FBF2F231
:1051C80001363ABB1849194B11EA270138BF19466D
:1051D80023F07EFE134B97FBF3F203FB1272441C81
:1051E8008046002AB8BF52421149281923F070FEA0
:1051F80015F80830703B05F808302B5D603B2044FB
:105208002B5528443022431B9E4205DC0023AB5516
:10521800BDE8F0810549DBE700F8012BF3E700BFA3
:10522800749D002080969800E5CF030825D60308D2
:10523800E9CF030810B50C4B93F8BA32012B04469A
:1052480008460CD001D3022B0DD1FBF7BBF9B023D4
:10525800024606492046BDE8104023F039BEFBF758
:10526800B1F9A123F4E710BD749D0020EECF030827
:1052780013B52B4B93F8BA3263B1022B3BD801F527
:10528800C333284A9F33934237D86422B92391FB0A
:10529800F2F216E007EE901A9FED237A2349F8EE12
:1052A800E77A67EE877AFDEEE77A17EE902A02F53D
:1052B800802303F23F738B4209D80F23642192FBAA
:1052C800F1F21B4902B0BDE8104023F001BE1949B4
:1052D80082EAE274A4EBE27494FBF1F301FB13435A
:1052E800BB24009492FBF1F24FF4A55493FBF4F322
:1052F800114923F0EDFD02B010BD104A81EAE174B6
:10530800A4EBE17494FBF2F302FB1343BA24009478
:1053180091FBF2F24FF47A7493FBF4F3E8E700BFE1
:10532800749D00203E0D030085EB51407E0E080061
:10533800F4CF0308800E0800F9CF0308A086010007
:10534800044BD3F86004044B1B68DB0658BF1E30BF
:10535800704700BFC01B0020604500201C4B03EBBA
:105368008000826D93F8C90AC2F3031102F00F029C
:10537800904221D293F8CA0A904294BF022000209A
:1053880093F8CB2A8A4219D840F0040082071CD02F
:1053980010F00C0F19D0C0F34003821002F0020283
:1053A80004331344012202FA03F31843030708BF26
:1053B80040F4807080B270470120E1E793F8CC3A5E
:1053C8008B4228BF40F00800E0E740F40070EDE7AA
:1053D800C01B00202DE9F0470A46334E28B396F843
:1053E800CD3AD1E90078002B3DD0304D96F8CE4A21
:1053F800B5F90030B5F90250002BB8BF5B42002D5B
:10540800B8BF6D42AB42B8BF2B461933322BB8BF79
:105418003223274D95FBF3F3F81848EBE371C2E903
:10542800000184F0010386F8CE3A96F8CE3AC3B16B
:105438001E4BB3F90020192A1DDC1932B4BFC02550
:105448000025B3F90230192B17DD45F05005194F27
:10545800DFF86880DFF86890002496F84C319C42A9
:1054680010DBBDE8F087144C0025381948EB05011E
:10547800C2E90001D9E73025E3E71933B8BF45F0A1
:10548800A005E4E757F82430DB034FEA840A08D57F
:105498002046FFF763FF28421CBFD9F800304AF8BE
:1054A80008300134D9E700BFC01B00208860002005
:1054B80080969800181C0020400D0300A84A002080
:1054C800147703082E480022F0B513461446074601
:1054D80050F8241059B1C1F30325062D04F1010435
:1054E80008BF0133890448BF0132202CF0D1254977
:1054F800D8B2002581F84E2181F84C4181F84D0140
:105508002A462B46A5422BD10132D2B25408013388
:1055180081F8D02A0132DBB2521081F8CF3A81F8F3
:10552800CA2A5A0801335B10013A02EAE27281F88A
:10553800CB3A0623013C81F8CC2AB0FBF3F203FBFB
:10554800120204EAE47412F0FF0F81F8C94A04D089
:105558000346062B01DDDA0710D581F84F31F0BD7F
:1055680057F82560C6F3031C634506F00F06B8BF5D
:105578006346B242B8BF32460135C3E75B10E8E77D
:10558800181C0020C01B002070B4124B9C88B52248
:10559800211D1A70C9B262225A70023100221944C0
:1055A80010469D1C8D420DD11C440A49A2719A884F
:1055B8001A4470BCD0719A88074B0832D3F8A401FA
:1055C80022F0A7B815F8016B3244D2B21044C0B229
:1055D800E8E700BF60B40020C01B0020074B10B4F0
:1055E80006249C700124DC7003241C7100245C7167
:1055F8005DF8044B9871D9711A72C5E760B4002040
:105608000B4B186810F0800011D00A4B186810F086
:1056180002000CD0084BDA79052A07D9B3F9200023
:10562800B0F5967FB4BF0020012070470020704776
:105638005C5E002060450020F05F0020054B064AB4
:105648005A6200229A715A709A70DA701A715A71F5
:10565800704700BFF05F00200F270F272DE9F8499A
:10566800264C274AD4F89C311B780C2101FB0323D4
:10567800D3F8F4361BB900263046BDE8F8899847B8
:1056880006460028F7D01F4D1F4AA979136802293A
:1056980011462AD1EF7994F8D70A874225D343F0E7
:1056A80002031360DFF86C80184F802028F082FA1C
:1056B800FCF73AF8D8E9002313430BD16B794BB1C7
:1056C800134823F07DF83B68B0EB030B61F1000C45
:1056D800C8E900BCD4F8BC213B68C4F8BC319B1AAB
:1056E800C4F8B821A4F8E831C6E7002223F0020381
:1056F8006A70AA702A710B60D4E700BFC01B002033
:1057080064720308F05F002060450020189B0020A9
:105718001A60002098260020034A044B126883F878
:10572800AC01C3F8B4217047189B0020C01B0020AF
:1057380010B55A4C94F8AC31022B8AB003D3042B21
:1057480003D9052B05D00020A5E00520FFF7E4FFCD
:10575800F9E7534AD4F8E01A13685B1A312BF2D9E7
:105768001368C4F8E03A9DF8103003F0F9036FF3BA
:1057780000038DF8103000220DF10F030093202153
:105788000123104615F012FA002847D09DF8103072
:1057980043F001038DF810309DF80F301A098DF889
:1057A8001C205A073AD59DF81020D80742F0040269
:1057B8008DF8102032D505AB009307220423202151
:1057C800002015F0F3F906AB00930B2204232021E7
:1057D800002015F0EBF908AB00931F2202232021CB
:1057E800002015F0E3F90DF1220300932322022390
:1057F8002021002015F0DAF90DF11E030093212273
:1058080002232021002015F0D1F90023ADF824301F
:105818009DF8103043F002038DF810309DF81020E9
:10582800D10790D512F004011E4B1ABF02209871BF
:1058380099719DF81C00D871920784D509B3BDF8F9
:10584800242042F20F7110468A424FEA420228BFD2
:1058580008468A4228BF0A4692B29A84DA84BDF87A
:1058680020201A84BDF822205A84059A9A60069A44
:10587800DA60BDF81E201A61002218855A709A70E5
:105888001A71D4F8F4210132C4F8F4211A7882F09C
:1058980001021A7001200AB010BD00BFC01B002011
:1058A800189B0020F05F002070B5164C164DD4F8F8
:1058B8009C311B780C2202FB035393F8EC36012B26
:1058C8001FD1D4F8A401E0B1104ED4F8B421336844
:1058D8009B1AC72B15D921F00AFF90B194F8AD3166
:1058E800D4F8A4011D440A4B95F8342753F8221024
:1058F80021F000FF3368C4F8BC310320BDE87040D4
:105908000AE770BDC01B002064720308189B0020C2
:105918005CB803082DE9F84FDC4CD4F8A4712DEDE0
:10592800028B002F40F0A38194F8AC31013B042B8B
:1059380000F2A681DFE813F09E01A201B201B201D4
:10594800A501552805D1002384F8E53A012384F8F8
:10595800E43AD4F8A40121F0D6FE0028E4D0D4F823
:10596800A40121F0CAFE94F8E43A062BF1D801A26A
:1059780052F823F04B59000899590008A559000816
:10598800B9590008E9590008255A0008455A00087D
:10599800AA2801D00023DAE70223D8E7032384F8F2
:1059A800E43A84F8E60A84F8E70A84F8E80AD0E7D3
:1059B800042384F8E43A94F8E63A94F8E72A03448E
:1059C800DBB284F8E63A134484F8E73A80B200235D
:1059D800A4F8EA0AA4F8EC3A0028BAD10623B6E7F4
:1059E80094F8E63A94F8E72A0344DBB284F8E63AF6
:1059F800134484F8E73AB4F8EC3AFF2B98BFE2185E
:105A080003F1010398BF82F8F00AB4F8EA2A9BB2BE
:105A18009A42A4F8EC3A9CD8052398E7062384F820
:105A2800E43A94F8E63A834293D0012384F8E53ABD
:105A3800D4F8EC310133C4F8EC318AE7002384F858
:105A4800E43A94F8E73A8342F2D1D4F8F4310133D6
:105A5800C4F8F43194F8E53A002B7FF47AAF94F85F
:105A6800E83A202B00F0DE80302B00F0BF80102BAE
:105A78007FF46FAF94F8276BD4F8F00A3146FAF741
:105A8800B1FF00F03F03C0F3033285F83030C0F3B4
:105A98008513072A85F82F30C0F3044388BF0133E4
:105AA80085F82D30C0F34353400E00F5FA60688541
:105AB800D4F8F40A85F82C3085F82E20FAF792FFEE
:105AC800E860D4F8F80AFAF78DFFA860D4F8FC0A61
